:10000000020178438920758DFD758BFD759850D25E
:100010008E22F5993099FDC29922E66005111208E9
:1000200080F8227A03758C4C758A50C28DD28C3040
:100030008DFDC28DC28CDAED22790775A0001123E7
:10004000112375A0FF11231123D9F075A0FF22758C
:10005000A0FF790775A0551123112375A0AA1123BC
:100060001123D9F075A0FF2275A0E7112375A0DB3D
:10007000112375A0BD112375A07E112375A0E71172
:100080002375A0DB112375A0BD112375A07E11235C
:1000900075A0E7112375A0DB112375A0BD11237591
:1000A000A07E112375A0E7112375A0DB112375A095
:1000B000BD112375A07E11232275A07E112375A08A
:1000C000BD112375A0DB112375A0E7112375A07E58
:1000D000112375A0BD112375A0DB112375A0E711B5
:1000E0002375A07E112375A0BD112375A0DB1123FC
:1000F00075A0E7112375A07E112375A0BD1123758E
:10010000A0DB112375A0E7112322747F112323F5AF
:10011000A01123B47FF823F5A01123B47FF823F5B1
:10012000A01123B47FF823F5A01123B47FF875A0A4
:10013000FF227400F5A022E550603CE530B445375D
:0F014000793009E7B431041139802CE7B4320467
:10014F00114F8024E7B433041168801CE7B43404E2
:10015F0011B98014E7B43504310A800CE7B43604C2
:10016F003132800474FFF5A022438921758DFD750E
:10017F008BFD759850D28E3098FDE599C298B40AD0
:10018F0015E550783028F876007830111A31377528
:10019F00500031BB80E1E550B41F0280DA7830E5C2
:1001AF005028F8E599F60550C29880CB7830792021
:0601BF00760008D9FB22C6
:00000001FF
