:100000000200E9DFFE227E55DEFEDFFA22D2927F79
:1000100003120003C2927F3212000322ED5401A2A8
:10002000E09284ED035401A2E09285ED03035401B4
:10003000A2E09286ED0303035401A2E0928722ED31
:10004000FC03030303FD12001C12000DECFD120063
:100050001C12000D227D0112003F7F0A12000322B4
:100060007D007F14120006C290C2917D0312001C15
:1000700012000D7F0512000612000D7F64120003AE
:1000800012000D7D0212001C12000D7D2812003F8F
:100090007D0C12003F7D0612003F7D0112003F22C1
:1000A000BB300574802B800374C02B7FFA120003D1
:1000B0007FFA1200037FFA1200037FFA120003FD99
:1000C00012003F7F3212000322D29012003FC290F2
:1000D00022E6600511C90880F822438920758DFD4C
:1000E000758BFD759850D28E2211DA3098FDE59906
:1000F000C298B40A14E550783028F87600783012A7
:1001000000D1755000311F80E2E550B41F0280DB42
:100110007830E55028F8E599F60550C29880CC78FB
:08012000307920760008D9FBBC
:0101280022B4
:00000001FF
